{
  "contractName": "Access",
  "abi": [
    {
      "inputs": [],
      "stateMutability": "nonpayable",
      "type": "constructor"
    },
    {
      "anonymous": false,
      "inputs": [
        {
          "indexed": true,
          "internalType": "address",
          "name": "owner",
          "type": "address"
        },
        {
          "indexed": true,
          "internalType": "address",
          "name": "approved",
          "type": "address"
        },
        {
          "indexed": true,
          "internalType": "uint256",
          "name": "tokenId",
          "type": "uint256"
        }
      ],
      "name": "Approval",
      "type": "event"
    },
    {
      "anonymous": false,
      "inputs": [
        {
          "indexed": true,
          "internalType": "address",
          "name": "owner",
          "type": "address"
        },
        {
          "indexed": true,
          "internalType": "address",
          "name": "operator",
          "type": "address"
        },
        {
          "indexed": false,
          "internalType": "bool",
          "name": "approved",
          "type": "bool"
        }
      ],
      "name": "ApprovalForAll",
      "type": "event"
    },
    {
      "anonymous": false,
      "inputs": [
        {
          "indexed": true,
          "internalType": "address",
          "name": "from",
          "type": "address"
        },
        {
          "indexed": true,
          "internalType": "address",
          "name": "to",
          "type": "address"
        },
        {
          "indexed": true,
          "internalType": "uint256",
          "name": "tokenId",
          "type": "uint256"
        }
      ],
      "name": "Transfer",
      "type": "event"
    },
    {
      "inputs": [],
      "name": "_tokenIds",
      "outputs": [
        {
          "internalType": "uint256",
          "name": "_value",
          "type": "uint256"
        }
      ],
      "stateMutability": "view",
      "type": "function",
      "constant": true
    },
    {
      "inputs": [
        {
          "internalType": "address",
          "name": "to",
          "type": "address"
        },
        {
          "internalType": "uint256",
          "name": "tokenId",
          "type": "uint256"
        }
      ],
      "name": "approve",
      "outputs": [],
      "stateMutability": "nonpayable",
      "type": "function"
    },
    {
      "inputs": [
        {
          "internalType": "address",
          "name": "owner",
          "type": "address"
        }
      ],
      "name": "balanceOf",
      "outputs": [
        {
          "internalType": "uint256",
          "name": "",
          "type": "uint256"
        }
      ],
      "stateMutability": "view",
      "type": "function",
      "constant": true
    },
    {
      "inputs": [
        {
          "internalType": "uint256",
          "name": "tokenId",
          "type": "uint256"
        }
      ],
      "name": "getApproved",
      "outputs": [
        {
          "internalType": "address",
          "name": "",
          "type": "address"
        }
      ],
      "stateMutability": "view",
      "type": "function",
      "constant": true
    },
    {
      "inputs": [
        {
          "internalType": "address",
          "name": "owner",
          "type": "address"
        },
        {
          "internalType": "address",
          "name": "operator",
          "type": "address"
        }
      ],
      "name": "isApprovedForAll",
      "outputs": [
        {
          "internalType": "bool",
          "name": "",
          "type": "bool"
        }
      ],
      "stateMutability": "view",
      "type": "function",
      "constant": true
    },
    {
      "inputs": [],
      "name": "name",
      "outputs": [
        {
          "internalType": "string",
          "name": "",
          "type": "string"
        }
      ],
      "stateMutability": "view",
      "type": "function",
      "constant": true
    },
    {
      "inputs": [
        {
          "internalType": "uint256",
          "name": "tokenId",
          "type": "uint256"
        }
      ],
      "name": "ownerOf",
      "outputs": [
        {
          "internalType": "address",
          "name": "",
          "type": "address"
        }
      ],
      "stateMutability": "view",
      "type": "function",
      "constant": true
    },
    {
      "inputs": [
        {
          "internalType": "address",
          "name": "from",
          "type": "address"
        },
        {
          "internalType": "address",
          "name": "to",
          "type": "address"
        },
        {
          "internalType": "uint256",
          "name": "tokenId",
          "type": "uint256"
        }
      ],
      "name": "safeTransferFrom",
      "outputs": [],
      "stateMutability": "nonpayable",
      "type": "function"
    },
    {
      "inputs": [
        {
          "internalType": "address",
          "name": "from",
          "type": "address"
        },
        {
          "internalType": "address",
          "name": "to",
          "type": "address"
        },
        {
          "internalType": "uint256",
          "name": "tokenId",
          "type": "uint256"
        },
        {
          "internalType": "bytes",
          "name": "_data",
          "type": "bytes"
        }
      ],
      "name": "safeTransferFrom",
      "outputs": [],
      "stateMutability": "nonpayable",
      "type": "function"
    },
    {
      "inputs": [
        {
          "internalType": "address",
          "name": "operator",
          "type": "address"
        },
        {
          "internalType": "bool",
          "name": "approved",
          "type": "bool"
        }
      ],
      "name": "setApprovalForAll",
      "outputs": [],
      "stateMutability": "nonpayable",
      "type": "function"
    },
    {
      "inputs": [],
      "name": "symbol",
      "outputs": [
        {
          "internalType": "string",
          "name": "",
          "type": "string"
        }
      ],
      "stateMutability": "view",
      "type": "function",
      "constant": true
    },
    {
      "inputs": [
        {
          "internalType": "uint256",
          "name": "index",
          "type": "uint256"
        }
      ],
      "name": "tokenByIndex",
      "outputs": [
        {
          "internalType": "uint256",
          "name": "",
          "type": "uint256"
        }
      ],
      "stateMutability": "view",
      "type": "function",
      "constant": true
    },
    {
      "inputs": [
        {
          "internalType": "address",
          "name": "owner",
          "type": "address"
        },
        {
          "internalType": "uint256",
          "name": "index",
          "type": "uint256"
        }
      ],
      "name": "tokenOfOwnerByIndex",
      "outputs": [
        {
          "internalType": "uint256",
          "name": "",
          "type": "uint256"
        }
      ],
      "stateMutability": "view",
      "type": "function",
      "constant": true
    },
    {
      "inputs": [
        {
          "internalType": "uint256",
          "name": "tokenId",
          "type": "uint256"
        }
      ],
      "name": "tokenURI",
      "outputs": [
        {
          "internalType": "string",
          "name": "",
          "type": "string"
        }
      ],
      "stateMutability": "view",
      "type": "function",
      "constant": true
    },
    {
      "inputs": [],
      "name": "totalSupply",
      "outputs": [
        {
          "internalType": "uint256",
          "name": "",
          "type": "uint256"
        }
      ],
      "stateMutability": "view",
      "type": "function",
      "constant": true
    },
    {
      "inputs": [
        {
          "internalType": "address",
          "name": "from",
          "type": "address"
        },
        {
          "internalType": "address",
          "name": "to",
          "type": "address"
        },
        {
          "internalType": "uint256",
          "name": "tokenId",
          "type": "uint256"
        }
      ],
      "name": "transferFrom",
      "outputs": [],
      "stateMutability": "nonpayable",
      "type": "function"
    },
    {
      "inputs": [],
      "name": "mint",
      "outputs": [],
      "stateMutability": "nonpayable",
      "type": "function"
    },
    {
      "inputs": [
        {
          "internalType": "bytes4",
          "name": "interfaceId",
          "type": "bytes4"
        }
      ],
      "name": "supportsInterface",
      "outputs": [
        {
          "internalType": "bool",
          "name": "",
          "type": "bool"
        }
      ],
      "stateMutability": "view",
      "type": "function",
      "constant": true
    }
  ],
  "bytecode": "0x60806040523480156200001157600080fd5b506040518060400160405280600681526020017f34636365737300000000000000000000000000000000000000000000000000008152506040518060400160405280600681526020017f3443434553530000000000000000000000000000000000000000000000000000815250816000908051906020019062000096929190620000b8565b508060019080519060200190620000af929190620000b8565b505050620001cd565b828054620000c69062000197565b90600052602060002090601f016020900481019282620000ea576000855562000136565b82601f106200010557805160ff191683800117855562000136565b8280016001018555821562000136579182015b828111156200013557825182559160200191906001019062000118565b5b50905062000145919062000149565b5090565b5b80821115620001645760008160009055506001016200014a565b5090565b7f4e487b7100000000000000000000000000000000000000000000000000000000600052602260045260246000fd5b60006002820490506001821680620001b057607f821691505b60208210811415620001c757620001c662000168565b5b50919050565b612f5380620001dd6000396000f3fe608060405234801561001057600080fd5b50600436106101165760003560e01c80634f6ccce7116100a2578063a22cb46511610071578063a22cb465146102f3578063aa46a4001461030f578063b88d4fde1461032d578063c87b56dd14610349578063e985e9c51461037957610116565b80634f6ccce7146102455780636352211e1461027557806370a08231146102a557806395d89b41146102d557610116565b80631249c58b116100e95780631249c58b146101b557806318160ddd146101bf57806323b872dd146101dd5780632f745c59146101f957806342842e0e1461022957610116565b806301ffc9a71461011b57806306fdde031461014b578063081812fc14610169578063095ea7b314610199575b600080fd5b61013560048036038101906101309190611d83565b6103a9565b6040516101429190611dcb565b60405180910390f35b6101536103bb565b6040516101609190611e7f565b60405180910390f35b610183600480360381019061017e9190611ed7565b61044d565b6040516101909190611f45565b60405180910390f35b6101b360048036038101906101ae9190611f8c565b6104d2565b005b6101bd6105ea565b005b6101c7610609565b6040516101d49190611fdb565b60405180910390f35b6101f760048036038101906101f29190611ff6565b610616565b005b610213600480360381019061020e9190611f8c565b610676565b6040516102209190611fdb565b60405180910390f35b610243600480360381019061023e9190611ff6565b61071b565b005b61025f600480360381019061025a9190611ed7565b61073b565b60405161026c9190611fdb565b60405180910390f35b61028f600480360381019061028a9190611ed7565b6107ac565b60405161029c9190611f45565b60405180910390f35b6102bf60048036038101906102ba9190612049565b61085e565b6040516102cc9190611fdb565b60405180910390f35b6102dd610916565b6040516102ea9190611e7f565b60405180910390f35b61030d600480360381019061030891906120a2565b6109a8565b005b610317610b29565b6040516103249190611fdb565b60405180910390f35b61034760048036038101906103429190612217565b610b35565b005b610363600480360381019061035e9190611ed7565b610b97565b6040516103709190611e7f565b60405180910390f35b610393600480360381019061038e919061229a565b610c3e565b6040516103a09190611dcb565b60405180910390f35b60006103b482610cd2565b9050919050565b6060600080546103ca90612309565b80601f01602080910402602001604051908101604052809291908181526020018280546103f690612309565b80156104435780601f1061041857610100808354040283529160200191610443565b820191906000526020600020905b81548152906001019060200180831161042657829003601f168201915b5050505050905090565b600061045882610d4c565b610497576040517f08c379a000000000000000000000000000000000000000000000000000000000815260040161048e906123ad565b60405180910390fd5b6004600083815260200190815260200160002060009054906101000a900473ffffffffffffffffffffffffffffffffffffffff169050919050565b60006104dd826107ac565b90508073ffffffffffffffffffffffffffffffffffffffff168373ffffffffffffffffffffffffffffffffffffffff16141561054e576040517f08c379a00000000000000000000000000000000000000000000000000000000081526004016105459061243f565b60405180910390fd5b8073ffffffffffffffffffffffffffffffffffffffff1661056d610db8565b73ffffffffffffffffffffffffffffffffffffffff16148061059c575061059b81610596610db8565b610c3e565b5b6105db576040517f08c379a00000000000000000000000000000000000000000000000000000000081526004016105d2906124d1565b60405180910390fd5b6105e58383610dc0565b505050565b6105f4600a610e79565b61060733610602600a610e8f565b610e9d565b565b6000600880549050905090565b610627610621610db8565b82610ebb565b610666576040517f08c379a000000000000000000000000000000000000000000000000000000000815260040161065d90612563565b60405180910390fd5b610671838383610f99565b505050565b60006106818361085e565b82106106c2576040517f08c379a00000000000000000000000000000000000000000000000000000000081526004016106b9906125f5565b60405180910390fd5b600660008473ffffffffffffffffffffffffffffffffffffffff1673ffffffffffffffffffffffffffffffffffffffff168152602001908152602001600020600083815260200190815260200160002054905092915050565b61073683838360405180602001604052806000815250610b35565b505050565b6000610745610609565b8210610786576040517f08c379a000000000000000000000000000000000000000000000000000000000815260040161077d90612687565b60405180910390fd5b6008828154811061079a576107996126a7565b5b90600052602060002001549050919050565b6000806002600084815260200190815260200160002060009054906101000a900473ffffffffffffffffffffffffffffffffffffffff169050600073ffffffffffffffffffffffffffffffffffffffff168173ffffffffffffffffffffffffffffffffffffffff161415610855576040517f08c379a000000000000000000000000000000000000000000000000000000000815260040161084c90612748565b60405180910390fd5b80915050919050565b60008073ffffffffffffffffffffffffffffffffffffffff168273ffffffffffffffffffffffffffffffffffffffff1614156108cf576040517f08c379a00000000000000000000000000000000000000000000000000000000081526004016108c6906127da565b60405180910390fd5b600360008373ffffffffffffffffffffffffffffffffffffffff1673ffffffffffffffffffffffffffffffffffffffff168152602001908152602001600020549050919050565b60606001805461092590612309565b80601f016020809104026020016040519081016040528092919081815260200182805461095190612309565b801561099e5780601f106109735761010080835404028352916020019161099e565b820191906000526020600020905b81548152906001019060200180831161098157829003601f168201915b5050505050905090565b6109b0610db8565b73ffffffffffffffffffffffffffffffffffffffff168273ffffffffffffffffffffffffffffffffffffffff161415610a1e576040517f08c379a0000000000000000000000000000000000000000000000000000000008152600401610a1590612846565b60405180910390fd5b8060056000610a2b610db8565b73ffffffffffffffffffffffffffffffffffffffff1673ffffffffffffffffffffffffffffffffffffffff16815260200190815260200160002060008473ffffffffffffffffffffffffffffffffffffffff1673ffffffffffffffffffffffffffffffffffffffff16815260200190815260200160002060006101000a81548160ff0219169083151502179055508173ffffffffffffffffffffffffffffffffffffffff16610ad8610db8565b73ffffffffffffffffffffffffffffffffffffffff167f17307eab39ab6107e8899845ad3d59bd9653f200f220920489ca2b5937696c3183604051610b1d9190611dcb565b60405180910390a35050565b600a8060000154905081565b610b46610b40610db8565b83610ebb565b610b85576040517f08c379a0000000000000000000000000000000000000000000000000000000008152600401610b7c90612563565b60405180910390fd5b610b91848484846111f5565b50505050565b6060610ba282610d4c565b610be1576040517f08c379a0000000000000000000000000000000000000000000000000000000008152600401610bd8906128d8565b60405180910390fd5b6000610beb611251565b90506000815111610c0b5760405180602001604052806000815250610c36565b80610c1584611268565b604051602001610c26929190612934565b6040516020818303038152906040525b915050919050565b6000600560008473ffffffffffffffffffffffffffffffffffffffff1673ffffffffffffffffffffffffffffffffffffffff16815260200190815260200160002060008373ffffffffffffffffffffffffffffffffffffffff1673ffffffffffffffffffffffffffffffffffffffff16815260200190815260200160002060009054906101000a900460ff16905092915050565b60007f780e9d63000000000000000000000000000000000000000000000000000000007bffffffffffffffffffffffffffffffffffffffffffffffffffffffff1916827bffffffffffffffffffffffffffffffffffffffffffffffffffffffff19161480610d455750610d44826113c9565b5b9050919050565b60008073ffffffffffffffffffffffffffffffffffffffff166002600084815260200190815260200160002060009054906101000a900473ffffffffffffffffffffffffffffffffffffffff1673ffffffffffffffffffffffffffffffffffffffff1614159050919050565b600033905090565b816004600083815260200190815260200160002060006101000a81548173ffffffffffffffffffffffffffffffffffffffff021916908373ffffffffffffffffffffffffffffffffffffffff160217905550808273ffffffffffffffffffffffffffffffffffffffff16610e33836107ac565b73ffffffffffffffffffffffffffffffffffffffff167f8c5be1e5ebec7d5bd14f71427d1e84f3dd0314c0f7b2291e5b200ac8c7c3b92560405160405180910390a45050565b6001816000016000828254019250508190555050565b600081600001549050919050565b610eb78282604051806020016040528060008152506114ab565b5050565b6000610ec682610d4c565b610f05576040517f08c379a0000000000000000000000000000000000000000000000000000000008152600401610efc906129ca565b60405180910390fd5b6000610f10836107ac565b90508073ffffffffffffffffffffffffffffffffffffffff168473ffffffffffffffffffffffffffffffffffffffff161480610f7f57508373ffffffffffffffffffffffffffffffffffffffff16610f678461044d565b73ffffffffffffffffffffffffffffffffffffffff16145b80610f905750610f8f8185610c3e565b5b91505092915050565b8273ffffffffffffffffffffffffffffffffffffffff16610fb9826107ac565b73ffffffffffffffffffffffffffffffffffffffff161461100f576040517f08c379a000000000000000000000000000000000000000000000000000000000815260040161100690612a5c565b60405180910390fd5b600073ffffffffffffffffffffffffffffffffffffffff168273ffffffffffffffffffffffffffffffffffffffff16141561107f576040517f08c379a000000000000000000000000000000000000000000000000000000000815260040161107690612aee565b60405180910390fd5b61108a838383611506565b611095600082610dc0565b6001600360008573ffffffffffffffffffffffffffffffffffffffff1673ffffffffffffffffffffffffffffffffffffffff16815260200190815260200160002060008282546110e59190612b3d565b925050819055506001600360008473ffffffffffffffffffffffffffffffffffffffff1673ffffffffffffffffffffffffffffffffffffffff168152602001908152602001600020600082825461113c9190612b71565b92505081905550816002600083815260200190815260200160002060006101000a81548173ffffffffffffffffffffffffffffffffffffffff021916908373ffffffffffffffffffffffffffffffffffffffff160217905550808273ffffffffffffffffffffffffffffffffffffffff168473ffffffffffffffffffffffffffffffffffffffff167fddf252ad1be2c89b69c2b068fc378daa952ba7f163c4a11628f55a4df523b3ef60405160405180910390a4505050565b611200848484610f99565b61120c84848484611516565b61124b576040517f08c379a000000000000000000000000000000000000000000000000000000000815260040161124290612c39565b60405180910390fd5b50505050565b606060405180602001604052806000815250905090565b606060008214156112b0576040518060400160405280600181526020017f300000000000000000000000000000000000000000000000000000000000000081525090506113c4565b600082905060005b600082146112e25780806112cb90612c59565b915050600a826112db9190612cd1565b91506112b8565b60008167ffffffffffffffff8111156112fe576112fd6120ec565b5b6040519080825280601f01601f1916602001820160405280156113305781602001600182028036833780820191505090505b5090505b600085146113bd576001826113499190612b3d565b9150600a856113589190612d02565b60306113649190612b71565b60f81b81838151811061137a576113796126a7565b5b60200101907effffffffffffffffffffffffffffffffffffffffffffffffffffffffffffff1916908160001a905350600a856113b69190612cd1565b9450611334565b8093505050505b919050565b60007f80ac58cd000000000000000000000000000000000000000000000000000000007bffffffffffffffffffffffffffffffffffffffffffffffffffffffff1916827bffffffffffffffffffffffffffffffffffffffffffffffffffffffff1916148061149457507f5b5e139f000000000000000000000000000000000000000000000000000000007bffffffffffffffffffffffffffffffffffffffffffffffffffffffff1916827bffffffffffffffffffffffffffffffffffffffffffffffffffffffff1916145b806114a457506114a3826116ad565b5b9050919050565b6114b58383611717565b6114c26000848484611516565b611501576040517f08c379a00000000000000000000000000000000000000000000000000000000081526004016114f890612c39565b60405180910390fd5b505050565b6115118383836118e5565b505050565b60006115378473ffffffffffffffffffffffffffffffffffffffff166119f9565b156116a0578373ffffffffffffffffffffffffffffffffffffffff1663150b7a02611560610db8565b8786866040518563ffffffff1660e01b81526004016115829493929190612d88565b602060405180830381600087803b15801561159c57600080fd5b505af19250505080156115cd57506040513d601f19601f820116820180604052508101906115ca9190612de9565b60015b611650573d80600081146115fd576040519150601f19603f3d011682016040523d82523d6000602084013e611602565b606091505b50600081511415611648576040517f08c379a000000000000000000000000000000000000000000000000000000000815260040161163f90612c39565b60405180910390fd5b805181602001fd5b63150b7a0260e01b7bffffffffffffffffffffffffffffffffffffffffffffffffffffffff1916817bffffffffffffffffffffffffffffffffffffffffffffffffffffffff1916149150506116a5565b600190505b949350505050565b60007f01ffc9a7000000000000000000000000000000000000000000000000000000007bffffffffffffffffffffffffffffffffffffffffffffffffffffffff1916827bffffffffffffffffffffffffffffffffffffffffffffffffffffffff1916149050919050565b600073ffffffffffffffffffffffffffffffffffffffff168273ffffffffffffffffffffffffffffffffffffffff161415611787576040517f08c379a000000000000000000000000000000000000000000000000000000000815260040161177e90612e62565b60405180910390fd5b61179081610d4c565b156117d0576040517f08c379a00000000000000000000000000000000000000000000000000000000081526004016117c790612ece565b60405180910390fd5b6117dc60008383611506565b6001600360008473ffffffffffffffffffffffffffffffffffffffff1673ffffffffffffffffffffffffffffffffffffffff168152602001908152602001600020600082825461182c9190612b71565b92505081905550816002600083815260200190815260200160002060006101000a81548173ffffffffffffffffffffffffffffffffffffffff021916908373ffffffffffffffffffffffffffffffffffffffff160217905550808273ffffffffffffffffffffffffffffffffffffffff16600073ffffffffffffffffffffffffffffffffffffffff167fddf252ad1be2c89b69c2b068fc378daa952ba7f163c4a11628f55a4df523b3ef60405160405180910390a45050565b6118f0838383611a0c565b600073ffffffffffffffffffffffffffffffffffffffff168373ffffffffffffffffffffffffffffffffffffffff1614156119335761192e81611a11565b611972565b8173ffffffffffffffffffffffffffffffffffffffff168373ffffffffffffffffffffffffffffffffffffffff1614611971576119708382611a5a565b5b5b600073ffffffffffffffffffffffffffffffffffffffff168273ffffffffffffffffffffffffffffffffffffffff1614156119b5576119b081611bc7565b6119f4565b8273ffffffffffffffffffffffffffffffffffffffff168273ffffffffffffffffffffffffffffffffffffffff16146119f3576119f28282611c98565b5b5b505050565b600080823b905060008111915050919050565b505050565b6008805490506009600083815260200190815260200160002081905550600881908060018154018082558091505060019003906000526020600020016000909190919091505550565b60006001611a678461085e565b611a719190612b3d565b9050600060076000848152602001908152602001600020549050818114611b56576000600660008673ffffffffffffffffffffffffffffffffffffffff1673ffffffffffffffffffffffffffffffffffffffff168152602001908152602001600020600084815260200190815260200160002054905080600660008773ffffffffffffffffffffffffffffffffffffffff1673ffffffffffffffffffffffffffffffffffffffff168152602001908152602001600020600084815260200190815260200160002081905550816007600083815260200190815260200160002081905550505b6007600084815260200190815260200160002060009055600660008573ffffffffffffffffffffffffffffffffffffffff1673ffffffffffffffffffffffffffffffffffffffff16815260200190815260200160002060008381526020019081526020016000206000905550505050565b60006001600880549050611bdb9190612b3d565b9050600060096000848152602001908152602001600020549050600060088381548110611c0b57611c0a6126a7565b5b906000526020600020015490508060088381548110611c2d57611c2c6126a7565b5b906000526020600020018190555081600960008381526020019081526020016000208190555060096000858152602001908152602001600020600090556008805480611c7c57611c7b612eee565b5b6001900381819060005260206000200160009055905550505050565b6000611ca38361085e565b905081600660008573ffffffffffffffffffffffffffffffffffffffff1673ffffffffffffffffffffffffffffffffffffffff168152602001908152602001600020600083815260200190815260200160002081905550806007600084815260200190815260200160002081905550505050565b6000604051905090565b600080fd5b600080fd5b60007fffffffff0000000000000000000000000000000000000000000000000000000082169050919050565b611d6081611d2b565b8114611d6b57600080fd5b50565b600081359050611d7d81611d57565b92915050565b600060208284031215611d9957611d98611d21565b5b6000611da784828501611d6e565b91505092915050565b60008115159050919050565b611dc581611db0565b82525050565b6000602082019050611de06000830184611dbc565b92915050565b600081519050919050565b600082825260208201905092915050565b60005b83811015611e20578082015181840152602081019050611e05565b83811115611e2f576000848401525b50505050565b6000601f19601f8301169050919050565b6000611e5182611de6565b611e5b8185611df1565b9350611e6b818560208601611e02565b611e7481611e35565b840191505092915050565b60006020820190508181036000830152611e998184611e46565b905092915050565b6000819050919050565b611eb481611ea1565b8114611ebf57600080fd5b50565b600081359050611ed181611eab565b92915050565b600060208284031215611eed57611eec611d21565b5b6000611efb84828501611ec2565b91505092915050565b600073ffffffffffffffffffffffffffffffffffffffff82169050919050565b6000611f2f82611f04565b9050919050565b611f3f81611f24565b82525050565b6000602082019050611f5a6000830184611f36565b92915050565b611f6981611f24565b8114611f7457600080fd5b50565b600081359050611f8681611f60565b92915050565b60008060408385031215611fa357611fa2611d21565b5b6000611fb185828601611f77565b9250506020611fc285828601611ec2565b9150509250929050565b611fd581611ea1565b82525050565b6000602082019050611ff06000830184611fcc565b92915050565b60008060006060848603121561200f5761200e611d21565b5b600061201d86828701611f77565b935050602061202e86828701611f77565b925050604061203f86828701611ec2565b9150509250925092565b60006020828403121561205f5761205e611d21565b5b600061206d84828501611f77565b91505092915050565b61207f81611db0565b811461208a57600080fd5b50565b60008135905061209c81612076565b92915050565b600080604083850312156120b9576120b8611d21565b5b60006120c785828601611f77565b92505060206120d88582860161208d565b9150509250929050565b600080fd5b600080fd5b7f4e487b7100000000000000000000000000000000000000000000000000000000600052604160045260246000fd5b61212482611e35565b810181811067ffffffffffffffff82111715612143576121426120ec565b5b80604052505050565b6000612156611d17565b9050612162828261211b565b919050565b600067ffffffffffffffff821115612182576121816120ec565b5b61218b82611e35565b9050602081019050919050565b82818337600083830152505050565b60006121ba6121b584612167565b61214c565b9050828152602081018484840111156121d6576121d56120e7565b5b6121e1848285612198565b509392505050565b600082601f8301126121fe576121fd6120e2565b5b813561220e8482602086016121a7565b91505092915050565b6000806000806080858703121561223157612230611d21565b5b600061223f87828801611f77565b945050602061225087828801611f77565b935050604061226187828801611ec2565b925050606085013567ffffffffffffffff81111561228257612281611d26565b5b61228e878288016121e9565b91505092959194509250565b600080604083850312156122b1576122b0611d21565b5b60006122bf85828601611f77565b92505060206122d085828601611f77565b9150509250929050565b7f4e487b7100000000000000000000000000000000000000000000000000000000600052602260045260246000fd5b6000600282049050600182168061232157607f821691505b60208210811415612335576123346122da565b5b50919050565b7f4552433732313a20617070726f76656420717565727920666f72206e6f6e657860008201527f697374656e7420746f6b656e0000000000000000000000000000000000000000602082015250565b6000612397602c83611df1565b91506123a28261233b565b604082019050919050565b600060208201905081810360008301526123c68161238a565b9050919050565b7f4552433732313a20617070726f76616c20746f2063757272656e74206f776e6560008201527f7200000000000000000000000000000000000000000000000000000000000000602082015250565b6000612429602183611df1565b9150612434826123cd565b604082019050919050565b600060208201905081810360008301526124588161241c565b9050919050565b7f4552433732313a20617070726f76652063616c6c6572206973206e6f74206f7760008201527f6e6572206e6f7220617070726f76656420666f7220616c6c0000000000000000602082015250565b60006124bb603883611df1565b91506124c68261245f565b604082019050919050565b600060208201905081810360008301526124ea816124ae565b9050919050565b7f4552433732313a207472616e736665722063616c6c6572206973206e6f74206f60008201527f776e6572206e6f7220617070726f766564000000000000000000000000000000602082015250565b600061254d603183611df1565b9150612558826124f1565b604082019050919050565b6000602082019050818103600083015261257c81612540565b9050919050565b7f455243373231456e756d657261626c653a206f776e657220696e646578206f7560008201527f74206f6620626f756e6473000000000000000000000000000000000000000000602082015250565b60006125df602b83611df1565b91506125ea82612583565b604082019050919050565b6000602082019050818103600083015261260e816125d2565b9050919050565b7f455243373231456e756d657261626c653a20676c6f62616c20696e646578206f60008201527f7574206f6620626f756e64730000000000000000000000000000000000000000602082015250565b6000612671602c83611df1565b915061267c82612615565b604082019050919050565b600060208201905081810360008301526126a081612664565b9050919050565b7f4e487b7100000000000000000000000000000000000000000000000000000000600052603260045260246000fd5b7f4552433732313a206f776e657220717565727920666f72206e6f6e657869737460008201527f656e7420746f6b656e0000000000000000000000000000000000000000000000602082015250565b6000612732602983611df1565b915061273d826126d6565b604082019050919050565b6000602082019050818103600083015261276181612725565b9050919050565b7f4552433732313a2062616c616e636520717565727920666f7220746865207a6560008201527f726f206164647265737300000000000000000000000000000000000000000000602082015250565b60006127c4602a83611df1565b91506127cf82612768565b604082019050919050565b600060208201905081810360008301526127f3816127b7565b9050919050565b7f4552433732313a20617070726f766520746f2063616c6c657200000000000000600082015250565b6000612830601983611df1565b915061283b826127fa565b602082019050919050565b6000602082019050818103600083015261285f81612823565b9050919050565b7f4552433732314d657461646174613a2055524920717565727920666f72206e6f60008201527f6e6578697374656e7420746f6b656e0000000000000000000000000000000000602082015250565b60006128c2602f83611df1565b91506128cd82612866565b604082019050919050565b600060208201905081810360008301526128f1816128b5565b9050919050565b600081905092915050565b600061290e82611de6565b61291881856128f8565b9350612928818560208601611e02565b80840191505092915050565b60006129408285612903565b915061294c8284612903565b91508190509392505050565b7f4552433732313a206f70657261746f7220717565727920666f72206e6f6e657860008201527f697374656e7420746f6b656e0000000000000000000000000000000000000000602082015250565b60006129b4602c83611df1565b91506129bf82612958565b604082019050919050565b600060208201905081810360008301526129e3816129a7565b9050919050565b7f4552433732313a207472616e73666572206f6620746f6b656e2074686174206960008201527f73206e6f74206f776e0000000000000000000000000000000000000000000000602082015250565b6000612a46602983611df1565b9150612a51826129ea565b604082019050919050565b60006020820190508181036000830152612a7581612a39565b9050919050565b7f4552433732313a207472616e7366657220746f20746865207a65726f2061646460008201527f7265737300000000000000000000000000000000000000000000000000000000602082015250565b6000612ad8602483611df1565b9150612ae382612a7c565b604082019050919050565b60006020820190508181036000830152612b0781612acb565b9050919050565b7f4e487b7100000000000000000000000000000000000000000000000000000000600052601160045260246000fd5b6000612b4882611ea1565b9150612b5383611ea1565b925082821015612b6657612b65612b0e565b5b828203905092915050565b6000612b7c82611ea1565b9150612b8783611ea1565b9250827fffffffffffffffffffffffffffffffffffffffffffffffffffffffffffffffff03821115612bbc57612bbb612b0e565b5b828201905092915050565b7f4552433732313a207472616e7366657220746f206e6f6e20455243373231526560008201527f63656976657220696d706c656d656e7465720000000000000000000000000000602082015250565b6000612c23603283611df1565b9150612c2e82612bc7565b604082019050919050565b60006020820190508181036000830152612c5281612c16565b9050919050565b6000612c6482611ea1565b91507fffffffffffffffffffffffffffffffffffffffffffffffffffffffffffffffff821415612c9757612c96612b0e565b5b600182019050919050565b7f4e487b7100000000000000000000000000000000000000000000000000000000600052601260045260246000fd5b6000612cdc82611ea1565b9150612ce783611ea1565b925082612cf757612cf6612ca2565b5b828204905092915050565b6000612d0d82611ea1565b9150612d1883611ea1565b925082612d2857612d27612ca2565b5b828206905092915050565b600081519050919050565b600082825260208201905092915050565b6000612d5a82612d33565b612d648185612d3e565b9350612d74818560208601611e02565b612d7d81611e35565b840191505092915050565b6000608082019050612d9d6000830187611f36565b612daa6020830186611f36565b612db76040830185611fcc565b8181036060830152612dc98184612d4f565b905095945050505050565b600081519050612de381611d57565b92915050565b600060208284031215612dff57612dfe611d21565b5b6000612e0d84828501612dd4565b91505092915050565b7f4552433732313a206d696e7420746f20746865207a65726f2061646472657373600082015250565b6000612e4c602083611df1565b9150612e5782612e16565b602082019050919050565b60006020820190508181036000830152612e7b81612e3f565b9050919050565b7f4552433732313a20746f6b656e20616c7265616479206d696e74656400000000600082015250565b6000612eb8601c83611df1565b9150612ec382612e82565b602082019050919050565b60006020820190508181036000830152612ee781612eab565b9050919050565b7f4e487b7100000000000000000000000000000000000000000000000000000000600052603160045260246000fdfea264697066735822122066f3fe7fafdaa710536f9bdc3045cea403ab44482b5028dce17725cbc85dfe3364736f6c63430008090033",
  "immutableReferences": {},
  "source": "pragma solidity ^0.8.0;\n\nimport \"@openzeppelin/contracts/token/ERC721/ERC721.sol\";\nimport \"@openzeppelin/contracts/token/ERC721/extensions/ERC721Enumerable.sol\";\nimport \"@openzeppelin/contracts/utils/Counters.sol\";\n\ncontract Access is ERC721, ERC721Enumerable {\n    // uint256[] public ids;\n    // mapping(uint256 => bool) _idExists;\n    using Counters for Counters.Counter;\n    Counters.Counter public _tokenIds;\n\n    constructor() ERC721(\"4ccess\", \"4CCESS\") {}\n\n    // TODO: restrict the ownership of this function to a minter/admin (openzeppelin)\n    // TODO: pass in a unique ID and add mapping (tokenUri, metadata)\n    function mint() public {\n        //get unique id somehow\n        _tokenIds.increment();\n\n        // require(!_colorExists[_color]) \n        // ids.push(_id);\n\n        // to address and token id passed in below\n        _safeMint(msg.sender, _tokenIds.current());\n        // _idExists[_id] = true;\n    }\n\n\n    // Overriden methods implemented from ERC721Enumerable\n    function _beforeTokenTransfer(\n        address from,\n        address to,\n        uint256 tokenId\n    ) internal override(ERC721, ERC721Enumerable) {\n        super._beforeTokenTransfer(from, to, tokenId);\n    }\n\n    function supportsInterface(bytes4 interfaceId)\n        public\n        view\n        override(ERC721, ERC721Enumerable)\n        returns (bool)\n    {\n        return super.supportsInterface(interfaceId);\n    }\n}\n",
  "sourcePath": "/Users/christopherfoley/web3/4ndreas4ccess/src/contracts/Access.sol",
  "compiler": {
    "name": "solc",
    "version": "0.8.9+commit.e5eed63a.Emscripten.clang"
  },
  "schemaVersion": "3.4.3",
  "updatedAt": "2021-10-24T14:03:59.911Z",
  "networkType": "ethereum",
  "devdoc": {
    "kind": "dev",
    "methods": {
      "approve(address,uint256)": {
        "details": "See {IERC721-approve}."
      },
      "balanceOf(address)": {
        "details": "See {IERC721-balanceOf}."
      },
      "getApproved(uint256)": {
        "details": "See {IERC721-getApproved}."
      },
      "isApprovedForAll(address,address)": {
        "details": "See {IERC721-isApprovedForAll}."
      },
      "name()": {
        "details": "See {IERC721Metadata-name}."
      },
      "ownerOf(uint256)": {
        "details": "See {IERC721-ownerOf}."
      },
      "safeTransferFrom(address,address,uint256)": {
        "details": "See {IERC721-safeTransferFrom}."
      },
      "safeTransferFrom(address,address,uint256,bytes)": {
        "details": "See {IERC721-safeTransferFrom}."
      },
      "setApprovalForAll(address,bool)": {
        "details": "See {IERC721-setApprovalForAll}."
      },
      "symbol()": {
        "details": "See {IERC721Metadata-symbol}."
      },
      "tokenByIndex(uint256)": {
        "details": "See {IERC721Enumerable-tokenByIndex}."
      },
      "tokenOfOwnerByIndex(address,uint256)": {
        "details": "See {IERC721Enumerable-tokenOfOwnerByIndex}."
      },
      "tokenURI(uint256)": {
        "details": "See {IERC721Metadata-tokenURI}."
      },
      "totalSupply()": {
        "details": "See {IERC721Enumerable-totalSupply}."
      },
      "transferFrom(address,address,uint256)": {
        "details": "See {IERC721-transferFrom}."
      }
    },
    "version": 1
  },
  "userdoc": {
    "kind": "user",
    "methods": {},
    "version": 1
  }
}